:020000040000FA
:020000000328D3
:040002000034003492
:0A00060007309F000313831600303B
:100010008600831286141120861000000000222022
:100020000A283230B0002A30B1002D300000000024
:1000300000000000B200B20B1B28B10B1528B00B5A
:10004000132808003230B0004A30000000000000E1
:1000500000000000000000000000000000000000A0
:100060000000000000000000B1003D300000000072
:10007000B200B20B3928B10B3528B00B2428080088
:02400E00193F58
:00000001FF
